:100000000C9462000C948A000C948A000C948A0070
:100010000C948A000C948A000C948A000C948A0038
:100020000C948A000C948A000C948A000C9450065C
:100030000C948A000C948A000C948A000C948A0018
:100040000C9406060C948A000C94D4050C94AE050E
:100050000C948A000C948A000C948A000C948A00F8
:100060000C948A000C948A000000000023002600F3
:10007000290000000000240027002A0000000000E2
:10008000250028002B0004040404040404040202D4
:100090000202020203030303030301020408102007
:1000A0004080010204081020010204081020000012
:1000B0000008000201000003040700000000000027
:1000C0000000510711241FBECFEFD8E0DEBFCDBF27
:1000D00011E0A0E0B1E0E0E0F7E102C005900D9290
:1000E000A235B107D9F722E0A2E5B1E001C01D9227
:1000F000A134B207E1F710E0C2E6D0E004C02197D6
:10010000FE010E94780BC136D107C9F70E94D907BA
:100110000C947E0B0C9400008F929F92AF92BF9232
:10012000FF920F931F93CF93DF938F3F980709F4AC
:1001300061C0853B910511F484EB90E0F0903E02A4
:100140002BE02F1508F44CC02091400208E512E086
:10015000021B110927FD1395000F111F000F111F1E
:1001600020913F02C8E8D0E0C21BD10927FDD395FA
:10017000CC0FDD1FCC0FDD1F4E010D2E000CAA0889
:10018000BB089801012E000C440B550B28193909A6
:100190004A095B09DC010E94690924EB30E040E078
:1001A00050E00E943F09820E931EA41EB51E8C16BD
:1001B0009D062CF0E801801691060CF4E4012297CC
:1001C000CC0FDD1F2FB7F8948F2D90E0FC01EE0FC0
:1001D000FF1FE80FF91FEF5FFD4FD283C1832FBFD1
:1001E000DF91CF911F910F91FF90BF90AF909F90A3
:1001F0008F90089590E080E0A1CFAF92BF92CF9210
:10020000DF92EF92FF920F931F93CF93DF936C01D6
:100210007B018B01040F151FEB015E01AE18BF08B7
:10022000C017D10759F06991D601ED91FC91019069
:10023000F081E02DC6010995892B79F7C501DF9181
:10024000CF911F910F91FF90EF90DF90CF90BF90D3
:10025000AF900895FC01538D448D252F30E0842FFD
:1002600090E0821B930B541710F0CF9608950197DE
:100270000895FC01918D828D981761F0A28DAE0FCB
:10028000BF2FB11D5D968C91928D9F5F9F73928F52
:1002900090E008958FEF9FEF0895FC01918D828D7E
:1002A000981731F0828DE80FF11D858D90E008954B
:1002B0008FEF9FEF0895FC01918D228D892F90E0A3
:1002C000805C9F4F821B91098F739927089584E664
:1002D00091E00E945B0121E0892B09F420E0822F4C
:1002E000089580E090E0892B29F00E946701811138
:1002F0000C9400000895FC01A48DA80FB92FB11D26
:10030000A35ABF4F2C91848D90E001968F7399274B
:10031000848FA689B7892C93A089B1898C91837029
:1003200080648C93938D848D981306C00288F38922
:10033000E02D80818F7D80830895EF92FF920F934F
:100340001F93CF93DF93EC0181E0888F9B8D8C8D81
:1003500098131AC0E889F989808185FF15C09FB775
:10036000F894EE89FF896083E889F9898081837038
:10037000806480839FBF81E090E0DF91CF911F91E7
:100380000F91FF90EF900895F62E0B8D10E00F5F08
:100390001F4F0F731127E02E8C8D8E110CC00FB6DE
:1003A00007FCFACFE889F989808185FFF5CFCE0176
:1003B0000E947B01F1CFEB8DEC0FFD2FF11DE35A75
:1003C000FF4FF0829FB7F8940B8FEA89FB898081F9
:1003D0008062CFCFCF93DF93EC01888D8823B9F073
:1003E000AA89BB89E889F9898C9185FD03C0808140
:1003F00086FD0DC00FB607FCF7CF8C9185FFF2CFBD
:10040000808185FFEDCFCE010E947B01E9CFDF9196
:10041000CF91089590E0FC01E255FF4F2491FC013B
:10042000E656FF4F3491FC01EA57FF4FE491EE236B
:10043000C9F0222339F0233001F1A8F4213019F159
:10044000223029F1F0E0EE0FFF1FE458FF4FA59195
:10045000B4918FB7F894EC91611126C030953E238A
:100460003C938FBF08952730A9F02830C9F024307D
:1004700049F7809180008F7D03C0809180008F7745
:1004800080938000DFCF84B58F7784BDDBCF84B5C8
:100490008F7DFBCF8091B0008F778093B000D2CF5B
:1004A0008091B0008F7DF9CF3E2BDACFCF93DF93D1
:1004B00090E0FC01E656FF4F24918A579F4FFC01C4
:1004C00084918823D1F090E0880F991FFC01EE58A9
:1004D000FF4FA591B491FC01E458FF4FC591D49111
:1004E00061110EC09FB7F8948C91E22FE0958E2396
:1004F0008C932881E223E8839FBFDF91CF910895F9
:100500008FB7F894EC91E22BEC938FBFF6CF3FB707
:10051000F8948091580190915901A0915A01B0919D
:100520005B0126B5A89B05C02F3F19F00196A11DC0
:10053000B11D3FBFBA2FA92F982F8827BC01CD012D
:10054000620F711D811D911D42E0660F771F881F8C
:10055000991F4A95D1F708958F929F92AF92BF92BB
:10056000CF92DF92EF92FF924B015C010E948702D3
:100570006B017C010E9487026C197D098E099F091D
:10058000683E734081059105A8F321E0821A910825
:10059000A108B10888EEC80E83E0D81EE11CF11C4A
:1005A00081149104A104B10429F7FF90EF90DF902A
:1005B000CF90BF90AF909F908F900895089590E056
:1005C00080E00895FC0101900020E9F73197AF0128
:1005D000481B590BBC0186E292E00C94FD008F92FF
:1005E0009F92AF92BF920F931F93CF93DF93CDB79C
:1005F000DEB7A1970FB6F894DEBF0FBECDBF19A22C
:10060000423008F44AE08E010F5D1F4F842E912C7A
:10061000B12CA12CA50194010E947109E62FB9010A
:10062000CA01EA30F4F4E05DD801EE938D01232B8A
:10063000242B252B79F790E080E0109719F0CD015D
:100640000E94E202A1960FB6F894DEBF0FBECDBFA6
:10065000DF91CF911F910F91BF90AF909F908F909E
:100660000895E95CE1CFCF93DF93EC0160E08E81E8
:100670000E940A0261E08E810E940A0260E08E817F
:100680000E940A028BE891E00197F1F7DF91CF9188
:100690000895CF92DF92EF92FF920F931F93CF9323
:1006A000DF936C017C0187E0E80EF11CD0E0C0E034
:1006B000062F10E0B8010C2E02C0759567950A94BC
:1006C000E2F76170F70181917F010E940A02219691
:1006D000C430D10579F7C601DF91CF911F910F91F9
:1006E000FF90EF90DF90CF900C943303CF92DF9286
:1006F000EF92FF920F931F93CF93DF93EC01F62EAF
:10070000642F8C810E940A028D818F3F19F060E076
:100710000E940A020F2D10E08F8584FF25C06E0114
:1007200087E0C80ED11CF12CE12CB8010E2C02C0C0
:10073000759567950A94E2F76170F60181916F01F2
:100740000E940A02FFEFEF1AFF0A88E0E816F104A0
:1007500061F7CE01DF91CF911F910F91FF90EF9044
:10076000DF90CF900C943303B80184E075956795C2
:100770008A95E1F7CE010E9449036F2DCE01DF91EA
:10078000CF911F910F91FF90EF90DF90CF900C943D
:10079000490340E0682F86E292E00C94760381E002
:1007A0000E94C9038BE39FE10197F1F70895CF936E
:1007B000DF93823029F4909135029860909335024E
:1007C0008093390210923A0280E480933B0280E1E8
:1007D00080933C0280E580933D0261E080912A0293
:1007E0000E94560280912B028F3F19F061E00E9417
:1007F000560261E080912C020E945602C6E2D2E0CD
:100800009E01265232408091350284FD0BC084E067
:1008100090E021962817390744F461E08E810E9408
:100820005602EECF88E090E0F4CF8BE39DE0019795
:10083000F1F760E080912A020E940A0260E0809154
:100840002C020E940A0280912B028F3F19F060E077
:100850000E940A028091350284FD34C063E086E282
:1008600092E00E944903CBE4D6E4CE010197F1F770
:1008700063E086E292E00E9449032197F1F763E08A
:1008800086E292E00E94490383E592E00197F1F746
:1008900062E086E292E00E94490380913502806224
:1008A0000E94C90384E0809336028CE00E94C90351
:1008B0000E94CF0382E08093370286E0DF91CF91E0
:1008C0000C94C90380620E94C9038BE496E40197EB
:1008D000F1F78091350280620E94C90383E592E0BE
:1008E0000197F1F78091350280620E94C903D5CF4C
:1008F00041E00E94760381E090E008958F929F92FC
:10090000AF92BF92CF92DF92EF92FF920E94CF03FD
:10091000E1E0809139028111E0E0E195F0E0EA5DEB
:10092000FD4F848980680E94C9038EE191E00E9496
:10093000E202E0913902E230D0F5E150F0E0EA5D08
:10094000FD4F848980680E94C9038DE291E00E9476
:10095000E202C0905C01D0905D01E0905E01F090F9
:100960005F01A7019601C701B6010E94670B8823AA
:1009700001F182E391E00E94E2028EE391E00E94A5
:10098000E20261E087E00E940A0268EB7BE080E01F
:1009900090E00E94AC0260E087E0FF90EF90DF9073
:1009A000CF90BF90AF909F908F900C940A02E1E09F
:1009B000C5CF46015701E894B7F82FEF3FEF4FE757
:1009C0005FE7C501B4010E94670B81110DC02FEFD5
:1009D0003FEF4FE75FE7C501B4010E940F0A181609
:1009E0001CF486E391E0C7CF2FEF3FEF4FE75FE4C2
:1009F000C701B6010E94F50A18161CF48AE391E0BB
:100A0000BACF2FEF3FEF4FE75FECC701B6010E946F
:100A10000F0A87FDF3CF20E030E0A901C701B6013E
:100A20000E940F0A87FF0AC041E06DE286E292E071
:100A30000E947603F7FAF094F7F8F0942AE037ED85
:100A400043EA5BE3C701B6010E94A3094B015C01C5
:100A50000E94140A6B017C010E94430A9B01AC01B5
:100A6000C501B4010E94A2094B015C014AE0C70123
:100A7000B6010E94EF0241E06EE286E292E00E943F
:100A8000760320E030E040E251E4C501B4010E9469
:100A9000FA0A4B015C010E94140A6B01F12CE12C53
:100AA0004AE0C701B6010E94EF02C701B6010E94E9
:100AB000430A9B01AC01C501B4010E94A20920E0D8
:100AC00030E040E251E40E94FA0A0E94140A90E0E9
:100AD00080E04AE00E94EF0250CF0F931F9360E046
:100AE00083E00E940A0283E090E00197F1F761E061
:100AF00083E00E940A0283E290E00197F1F760E050
:100B000083E00E940A02ECE9F0E06491E8E8F0E09A
:100B1000E491F0E0EE0FFF1FE859FF4F85919491AB
:100B200000E412E42FE030E0462F0E940C0761152C
:100B300071058105910529F06F5F7F4F8F4F9F4FA2
:100B40009F700E94430A60936001709361018093DB
:100B50006201909363011F910F9108951F920F926C
:100B60000FB60F9211242F933F934F935F936F9380
:100B70007F938F939F93AF93BF93EF93FF9384E6FD
:100B800091E00E947B01FF91EF91BF91AF919F9106
:100B90008F917F916F915F914F913F912F910F9026
:100BA0000FBE0F901F9018951F920F920FB60F92C5
:100BB00011242F938F939F93EF93FF93E0917401F0
:100BC000F09175018081E0917A01F0917B0182FDC5
:100BD0001BC0908180917D018F5F8F7320917E017A
:100BE000821741F0E0917D01F0E0EC59FE4F958FC6
:100BF00080937D01FF91EF919F918F912F910F90A5
:100C00000FBE0F901F9018958081F4CF1F920F9206
:100C10000FB60F9211242F933F938F939F93AF930F
:100C2000BF938091540190915501A0915601B091CC
:100C300057013091530123E0230F2D3758F50196CA
:100C4000A11DB11D20935301809354019093550130
:100C5000A0935601B093570180915801909159018A
:100C6000A0915A01B0915B010196A11DB11D809325
:100C7000580190935901A0935A01B0935B01BF9121
:100C8000AF919F918F913F912F910F900FBE0F9039
:100C90001F90189526E8230F0296A11DB11DD2CFF3
:100CA0001F920F920FB60F9211242F933F934F93E1
:100CB0005F936F937F938F939F93AF93BF93CF93E4
:100CC000DF93EF93FF9380915201C0912502D0E012
:100CD00087FF24C0109285001092840080915201F9
:100CE0008F5F8093520180915201082E000C990B66
:100CF0008C179D0724F4809152018C30C4F18091AF
:100D0000840090918500049680349C4908F47AC050
:100D10008091840090918500049676C08091520164
:100D2000082E000C990B8C179D07C4F6E091520118
:100D30008E2FEE0F990BFC01EE0FFF1FE80FF91F2E
:100D4000EF5FFD4F808186FFC9CFE09152018E2F6A
:100D5000EE0F990BFC01EE0FFF1FE80FF91FEF5F7D
:100D6000FD4F808160E08F730E940A02B7CF20910F
:100D7000840030918500E09152018E2FEE0F990B87
:100D8000FC01EE0FFF1FE80FF91FEF5FFD4F8181A0
:100D90009281820F931F9093890080938800E09145
:100DA00052018E2FEE0F990BFC01EE0FFF1FE80F83
:100DB000F91FEF5FFD4F808186FF11C0E091520166
:100DC0008E2FEE0F990BFC01EE0FFF1FE80FF91F9E
:100DD000EF5FFD4F808161E08F730E940A02FF91F7
:100DE000EF91DF91CF91BF91AF919F918F917F91C3
:100DF0006F915F914F913F912F910F900FBE0F9088
:100E00001F90189580E49CE9909389008093880056
:100E10008FEF80935201E3CFCF92DF92EF92FF9258
:100E20000F931F93E82FF92F05C0015011092109D5
:100E3000310961F1908196239417B9F305C00150EF
:100E400011092109310911F1908196239413F7CFEB
:100E5000C12CD12CE12CF12C0AC08FEFC81AD80A72
:100E6000E80AF80A0C151D052E053F0579F080816A
:100E70008623841791F36C2D7D2D8E2D9F2D1F9130
:100E80000F91FF90EF90DF90CF90089560E070E0B9
:100E900080E090E01F910F91FF90EF90DF90CF9056
:100EA0000895109267011092660188EE93E0A0E029
:100EB000B0E08093680190936901A0936A01B093B8
:100EC0006B0184E091E0909365018093640185EC6F
:100ED00090E0909371018093700184EC90E0909386
:100EE00073018093720180EC90E090937501809380
:100EF000740181EC90E0909377018093760182EC0D
:100F000090E0909379018093780186EC90E0909343
:100F10007B0180937A0110927D0110927E011092E4
:100F20007F0110928001809125028C30F0F591E0D4
:100F3000980F9093250280933E0290E0FC01EE0F03
:100F4000FF1FE80FF91FEF5FFD4F88EB9BE09283D7
:100F50008183109229021092280286E191E09093F9
:100F60002702809326028DE080932A028FEF8093E0
:100F70002B028CE080932C028BE080932D028AE080
:100F800080932E0289E080932F0288E080933002C4
:100F900010923102109232021092330210923402F7
:100FA0001092350281E00C94D7038FEF80933E02BC
:100FB000D0CF789484B5826084BD84B5816084BDCF
:100FC00085B5826085BD85B5816085BD80916E00E7
:100FD000816080936E001092810080918100826018
:100FE0008093810080918100816080938100809155
:100FF00080008160809380008091B1008460809344
:10100000B1008091B00081608093B00080917A003F
:10101000846080937A0080917A00826080937A0065
:1010200080917A00816080937A0080917A00806854
:1010300080937A001092C10080913E028C3008F0BB
:1010400051C061E086E00E94560280913E02282F46
:1010500030E0F901EE0FFF1FE20FF31FEF5FFD4FCE
:101060009081907C9660908310923F021092400293
:101070002CE0622F0E946C0B829FB001112430E0A3
:1010800020E0AB01420F531FFA01EE0FFF1FE40FE8
:10109000F51FEF5FFD4F908196FD16C02F5F3F4F0C
:1010A0002C30310571F781110FC01092800082E061
:1010B000809381001092850010928400B19A8091F3
:1010C0006F00826080936F00E0913E028E2F90E06F
:1010D000FC01EE0FFF1FE80FF91FEF5FFD4F80814E
:1010E0008064808361E083E00E94560260E082E0D9
:1010F0000E94560261E087E00E945602E09174016E
:10110000F091750182E08083E0917001F0917101AE
:101110001082E0917201F09173018FEC8083109244
:101120007C01E0917801F091790186E08083E09183
:101130007601F0917701808180618083E091760172
:10114000F0917701808188608083E0917601F09151
:101150007701808180688083E0917601F09177014A
:1011600080818F7D808382E00E94D70300E010E0C1
:10117000D0E0C0E0CE010E948C000E946D0528E204
:101180003EE74CE05DE36091600170916101809108
:101190006201909163010E94FA0A20E030E040E091
:1011A0005FE30E94FA0A60935C0170935D01809393
:1011B0005E0190935F0120E030E048E452E40E9439
:1011C0000F0A18160CF44DC00E947E0464E670E00D
:1011D00080E090E00E94AC022196C53BD10551F61B
:1011E000C4EBD0E0CE010E948C000E946D0528E285
:1011F0003EE74CE05DE36091600170916101809198
:101200006201909163010E94FA0A20E030E040E020
:101210005FE30E94FA0A60935C0170935D01809322
:101220005E0190935F0120E030E048E452E40E94C8
:101230000F0A1816ECF00E947E0464E670E080E06D
:1012400090E00E94AC02219768F60115110509F49F
:101250008FCF0E946701882309F48ACF0E94000083
:1012600087CF0E94CF0382E491E00E94E202AECFDA
:101270000E94CF0382E491E00E94E202DECF052EBD
:1012800097FB1EF400940E94560957FD07D00E9458
:10129000710907FC03D04EF40C9456095095409503
:1012A000309521953F4F4F4F5F4F08959095809512
:1012B000709561957F4F8F4F9F4F08950E949309BE
:1012C000A59F900DB49F900DA49F800D911D11249A
:1012D0000895B7FF0C945E090E945E09821B930B70
:1012E0000895A1E21A2EAA1BBB1BFD010DC0AA1F67
:1012F000BB1FEE1FFF1FA217B307E407F50720F07F
:10130000A21BB30BE40BF50B661F771F881F991FF9
:101310001A9469F760957095809590959B01AC0142
:10132000BD01CF010895A29FB001B39FC001A39F4B
:10133000700D811D1124911DB29F700D811D11240E
:10134000911D08955058BB27AA270E94BA090C94F2
:10135000BB0A0E94AD0A38F00E94B40A20F039F4AA
:101360009F3F19F426F40C94AA0A0EF4E095E7FBCB
:101370000C94A40AE92F0E94CC0A58F3BA1762070A
:1013800073078407950720F079F4A6F50C94EE0A0C
:101390000EF4E0950B2EBA2FA02D0B01B901900190
:1013A0000C01CA01A0011124FF27591B99F0593FD4
:1013B00050F4503E68F11A16F040A22F232F342F1C
:1013C0004427585FF3CF469537952795A795F0406A
:1013D0005395C9F77EF41F16BA0B620B730B840B7F
:1013E000BAF09150A1F0FF0FBB1F661F771F881F37
:1013F000C2F70EC0BA0F621F731F841F48F487958F
:1014000077956795B795F7959E3F08F0B0CF939580
:10141000880F08F09927EE0F9795879508950E94F9
:10142000800A08F481E008950E94D40A88F09F574A
:1014300098F0B92F9927B751B0F0E1F0660F771FF8
:10144000881F991F1AF0BA95C9F714C0B13091F0EE
:101450000E94EE0AB1E008950C94EE0A672F782FEF
:101460008827B85F39F0B93FCCF3869577956795B3
:10147000B395D9F73EF490958095709561957F4F1F
:101480008F4F9F4F0895E89409C097FB3EF49095C5
:101490008095709561957F4F8F4F9F4F9923A9F04D
:1014A000F92F96E9BB279395F695879577956795DC
:1014B000B795F111F8CFFAF4BB0F11F460FF1BC020
:1014C0006F5F7F4F8F4F9F4F16C0882311F096E9B3
:1014D00011C0772321F09EE8872F762F05C0662361
:1014E00071F096E8862F70E060E02AF09A95660F1A
:1014F000771F881FDAF7880F9695879597F90895D3
:10150000990F0008550FAA0BE0E8FEEF1616170614
:10151000E807F907C0F012161306E407F50798F07C
:10152000621B730B840B950B39F40A2661F0232B95
:10153000242B252B21F408950A2609F4A140A69511
:101540008FEF811D811D089597F99F6780E870E0F6
:1015500060E008959FEF80EC089500240A94161629
:10156000170618060906089500240A941216130691
:10157000140605060895092E0394000C11F488231F
:1015800052F0BB0F40F4BF2B11F460FF04C06F5F3B
:101590007F4F8F4F9F4F089557FD9058440F551F11
:1015A00059F05F3F71F04795880F97FB991F61F0E5
:1015B0009F3F79F087950895121613061406551F5C
:1015C000F2CF4695F1DF08C0161617061806991FC8
:1015D000F1CF86957105610508940895E894BB27BD
:1015E00066277727CB0197F908950E94800A08F4AF
:1015F0008FEF08950E940D0B0C94BB0A0E94AD0A58
:1016000038F00E94B40A20F0952311F00C94A40A3B
:101610000C94AA0A11240C94EF0A0E94CC0A70F3CD
:10162000959FC1F3950F50E0551F629FF001729F87
:10163000BB27F00DB11D639FAA27F00DB11DAA1F96
:10164000649F6627B00DA11D661F829F2227B00DE3
:10165000A11D621F739FB00DA11D621F839FA00D6E
:10166000611D221F749F3327A00D611D231F849FBE
:10167000600D211D822F762F6A2F11249F57504015
:101680009AF0F1F088234AF0EE0FFF1FBB1F661F90
:10169000771F881F91505040A9F79E3F510580F059
:1016A0000C94A40A0C94EF0A5F3FE4F3983ED4F341
:1016B000869577956795B795F795E7959F5FC1F7FD
:1016C000FE2B880F911D9695879597F908950E9496
:1016D000800A880B990B0895991B79E004C0991F23
:1016E000961708F0961B881F7A95C9F7809508957C
:1016F000EE0FFF1F0590F491E02D0994F894FFCFB1
:10170000000000009D01FD002A01EA015B01390192
:101710004D01000000007804FD00DF02DE02202001
:10172000496E7472756465722061742000202020F7
:1017300020006E616E00696E66006F766600206341
:101740006D005363616E6E696E672E2E2E2E2E2EE7
:02175000200077
:00000001FF
