:100000000C945D000C947A000C947A000C947A00A5
:100010000C947A000C947A000C947A000C94690188
:100020000C947A000C947A000C947A000C947A0068
:100030000C947A000C947A000C947A000C947A0058
:100040000C94C5010C947A000C947A000C947A00FC
:100050000C947A000C947A000C947A000C947A0038
:100060000C947A000C947A00000000080002010051
:100070000003040700000000000000000200000070
:1000800000250028002B0000000000240027002A83
:100090000004040404040404040202020202020331
:1000A000030303030301020408102040800102043B
:1000B0000810200102040810200011241FBECFEFF9
:1000C000D8E0DEBFCDBF11E0A0E0B1E0EEE8F6E0A1
:1000D00002C005900D92A230B107D9F721E0A2E04D
:1000E000B1E001C01D92AC31B207E1F70E940F02EE
:1000F0000C9445030C940000EFEAF0E02491EBE946
:10010000F0E08491882399F090E0880F991FFC011A
:10011000E957FF4FA591B491FC01E358FF4F85913A
:1001200094918FB7F894EC91E22BEC938FBF0895E4
:100130009091000189130DC0ECE7F0E0E4919FEF8E
:1001400090930001E13009F431C068F1E23009F424
:1001500033C090E0FC01E859FF4F2491FC01EB55BE
:10016000FF4F3491FC01EF56FF4FE491EE23D1F0A5
:10017000222351F0233009F43AC078F5213009F4F4
:100180003CC0223009F43DC0F0E0EE0FFF1FE35801
:10019000FF4FA591B4918FB7F894EC9130953E2321
:1001A0003C938FBF089510926E00D3CF90916F0053
:1001B0009D7F90936F00CDCF909170009D7F909325
:1001C000700091E09093B0009091B100987F94609E
:1001D0009093B1001092B300BCCF2730A9F0283023
:1001E000C9F0243089F6809180008F7D03C0809112
:1001F00080008F7780938000C7CF84B58F7784BDD0
:10020000C3CF84B58F7DFBCF8091B0008F77809373
:10021000B000BACF8091B0008F7DF9CF3FB7F8948E
:100220008091070190910801A0910901B0910A0104
:1002300026B5A89B05C02F3F19F00196A11DB11D41
:100240003FBFBA2FA92F982F8827BC01CD01620F7D
:10025000711D811D911D42E0660F771F881F991F38
:100260004A95D1F708958F929F92AF92BF92CF9205
:10027000DF92EF92FF920E940E014B015C0188EE2B
:10028000C82E83E0D82EE12CF12C0E940E016819B3
:1002900079098A099B09683E734081059105A8F395
:1002A00021E0C21AD108E108F10888EE880E83E047
:1002B000981EA11CB11CC114D104E104F10429F75A
:1002C000FF90EF90DF90CF90BF90AF909F908F9076
:1002D00008951F920F920FB60F9211242F933F9300
:1002E0004F935F936F937F938F939F93AF93BF933E
:1002F000EF93FF938091100190911101A091120151
:10030000B0911301892B8A2B8B2BD1F190910B018A
:10031000E0910C01F0910D0180818927808380910B
:10032000100190911101A0911201B09113011816C2
:1003300019061A061B069CF4809110019091110178
:10034000A0911201B09113010197A109B109809305
:10035000100190931101A0931201B0931301FF912A
:10036000EF91BF91AF919F918F917F916F915F912D
:100370004F913F912F910F900FBE0F901F901895A6
:10038000809100010E949800EACF1F920F920FB651
:100390000F9211242F933F938F939F93AF93BF930B
:1003A0008091030190910401A0910501B091060193
:1003B0003091020123E0230F2D3758F50196A11D3E
:1003C000B11D209302018093030190930401A09337
:1003D0000501B09306018091070190910801A09159
:1003E0000901B0910A010196A11DB11D8093070179
:1003F00090930801A0930901B0930A01BF91AF91B6
:100400009F918F913F912F910F900FBE0F901F9052
:10041000189526E8230F0296A11DB11DD2CF78941E
:1004200084B5826084BD84B5816084BD85B58260F9
:1004300085BD85B5816085BD80916E0081608093AA
:100440006E00109281008091810082608093810013
:100450008091810081608093810080918000816023
:10046000809380008091B10084608093B10080917E
:10047000B00081608093B00080917A0084608093A6
:100480007A0080917A00826080937A0080917A006D
:10049000816080937A0080917A00806880937A00EE
:1004A0001092C1000E947C003FE3C32E3FE1D32E97
:1004B0004CE7E42E40E0F42E5BE9452E50E0552E4B
:1004C0000FEA10E060E0662E60E0762E88248A94C1
:1004D000982C5401DAE0809100018A30B1F4F701E0
:1004E000C491C7FD89C00E947C00CC2309F43BC0A5
:1004F000C23009F4B1C0C13009F467C0C23009F498
:10050000C2C0C11179C08FE333C08F3F09F074C0FE
:10051000D0930001F701C491CF3F09F46DC0C13001
:1005200009F435C040F0C23009F474C0C7FD64C09E
:100530000E947C00DDCF14BC15BC84B5826084BDF4
:1005400085B5816085BDF2018491E82FF0E0EE0F62
:10055000FF1FE358FF4F85919491F8018491809398
:100560000F010E947C0085B5887F836085BD8CE784
:1005700087BD8092180190921901A0921A01B09241
:100580001B0180916E00826080936E0035C01092D6
:1005900080001092810080918100886080938100AA
:1005A00080918100816080938100F2018491E82F25
:1005B000F0E0EE0FFF1FE358FF4F85919491F80193
:1005C000849180930E010E947C0080918100887F3D
:1005D000816080938100D0928900C09288008092CF
:1005E000140190921501A0921601B092170180910A
:1005F0006F00826080936F000E9433018AE00E9446
:1006000098000E9433016114710409F464CF0E94C0
:10061000000061CF1092B0001092B1008091B00044
:1006200082608093B0008091B10081608093B100BE
:10063000F2018491E82FF0E0EE0FFF1FE358FF4F27
:100640008591949190930D0180930C01F801849110
:1006500080930B010E947C008091B100887F8360B1
:100660008093B10089EF8093B30080921001909243
:100670001101A0921201B09213018091700082606A
:0E06800080937000B9CF8FE3EECFF894FFCFD8
:02068E00FF006B
:00000001FF
