:100000000C9462000C948A000C948A000C948A0070
:100010000C948A000C948A000C948A000C948A0038
:100020000C948A000C948A000C948A000C948A0028
:100030000C948A000C948A000C948A000C948A0018
:100040000C9428050C948A000C94F6040C94D004AB
:100050000C948A000C948A000C948A000C948A00F8
:100060000C948A000C948A000000000024002700F1
:100070002A0000000000250028002B0000000008D6
:10008000000201000003040700000000000000005F
:1000900000000000230026002900040404040404D6
:1000A0000404020202020202030303030303010227
:1000B00004081020408001020408102001020408F6
:1000C0001020B70511241FBECFEFD8E0DEBFCDBF93
:1000D00011E0A0E0B1E0E6E9F3E102C005900D9285
:1000E000AE33B107D9F722E0AEE3B1E001C01D9213
:1000F000A030B207E1F710E0C2E6D0E004C02197DB
:10010000FE010E94C309C136D107C9F70E9401064A
:100110000C94C9090C940000AF92BF92CF92DF9269
:10012000EF92FF920F931F93CF93DF936C017B01AC
:100130008B01040F151FEB015E01AE18BF08C0173D
:10014000D10759F06991D601ED91FC910190F081B0
:10015000E02DC6010995892B79F7C501DF91CF9173
:100160001F910F91FF90EF90DF90CF90BF90AF90D5
:100170000895FC01538D448D252F30E0842F90E0AD
:10018000821B930B541710F0CF9608950197089592
:10019000FC01918D828D981761F0A28DAE0FBF2F5B
:1001A000B11D5D968C91928D9F5F9F73928F90E0B1
:1001B00008958FEF9FEF0895FC01918D828D981720
:1001C00031F0828DE80FF11D858D90E008958FEF5D
:1001D0009FEF0895FC01918D228D892F90E0805C26
:1001E0009F4F821B91098F73992708958BE491E0AB
:1001F0000E94EA0021E0892B09F420E0822F089573
:1002000080E090E0892B29F00E94F60081110C9487
:1002100000000895FC01A48DA80FB92FB11DA35AA9
:10022000BF4F2C91848D90E001968F739927848F16
:10023000A689B7892C93A089B1898C918370806439
:100240008C93938D848D981306C00288F389E02DDA
:1002500080818F7D80830895EF92FF920F931F938B
:10026000CF93DF93EC0181E0888F9B8D8C8D981369
:100270001AC0E889F989808185FF15C09FB7F89475
:10028000EE89FF896083E889F989808183708064C1
:1002900080839FBF81E090E0DF91CF911F910F910C
:1002A000FF90EF900895F62E0B8D10E00F5F1F4F1B
:1002B0000F731127E02E8C8D8E110CC00FB607FC2A
:1002C000FACFE889F989808185FFF5CFCE010E94B8
:1002D0000A01F1CFEB8DEC0FFD2FF11DE35AFF4F1B
:1002E000F0829FB7F8940B8FEA89FB898081806246
:1002F000CFCFCF93DF93EC01888D8823B9F0AA8903
:10030000BB89E889F9898C9185FD03C0808186FDD0
:100310000DC00FB607FCF7CF8C9185FFF2CF80811F
:1003200085FFEDCFCE010E940A01E9CFDF91CF9189
:10033000089590E0FC01E458FF4F2491FC01E25540
:10034000FF4F3491FC01E656FF4FE491EE23C9F0D4
:10035000222339F0233001F1A8F4213019F12230A1
:1003600029F1F0E0EE0FFF1FEE58FF4FA591B49179
:100370008FB7F894EC91611126C030953E233C93E1
:100380008FBF08952730A9F02830C9F0243049F7ED
:10039000809180008F7D03C0809180008F77809353
:1003A0008000DFCF84B58F7784BDDBCF84B58F7DB0
:1003B000FBCF8091B0008F778093B000D2CF809137
:1003C000B0008F7DF9CF3E2BDACFCF93DF9390E053
:1003D000FC01E255FF4F249186569F4FFC0184910A
:1003E0008823D1F090E0880F991FFC01E859FF4F56
:1003F000A591B491FC01EE58FF4FC591D4916111C4
:100400000EC09FB7F8948C91E22FE0958E238C93C9
:100410002881E223E8839FBFDF91CF9108958FB7B2
:10042000F894EC91E22BEC938FBFF6CF3FB7F894A2
:100430008091430190914401A0914501B091460102
:1004400026B5A89B05C02F3F19F00196A11DB11D2F
:100450003FBFBA2FA92F982F8827BC01CD01620F6B
:10046000711D811D911D42E0660F771F881F991F26
:100470004A95D1F70895089590E080E00895FB0132
:1004800001900020E9F73197AF01461B570BDC01C3
:10049000ED91FC910280F381E02D09948F929F925F
:1004A000AF92BF92EF92FF920F931F93CF93DF9380
:1004B000CDB7DEB7A1970FB6F894DEBF0FBECDBFA4
:1004C0007C01FA01CB0119A2223008F42AE08E0146
:1004D0000F5D1F4F822E912CB12CA12CBF01A501C5
:1004E00094010E94A109F901CA016A300CF5605D0E
:1004F000D8016E938D01232B242B252B79F790E0C7
:1005000080E0109721F0BD01C7010E943F02A19633
:100510000FB6F894DEBF0FBECDBFDF91CF911F9114
:100520000F91FF90EF90BF90AF909F908F900895A4
:10053000695CDECF2F923F924F925F926F927F92D3
:100540008F929F92AF92BF92CF92DF92EF92FF92E3
:100550001F93CF93DF93EC016A017B01722EAB01F5
:100560009601CB01B6010E949C096EE171E08111F8
:1005700026C046015701E894B7F82FEF3FEF4FE749
:100580005FE7C501B4010E949C0981110CC02FEFE7
:100590003FEF4FE75FE7C501B4010E94D20762E277
:1005A00071E0181664F02FEF3FEF4FE75FE4C701EB
:1005B000B6010E942A091816B4F466E271E0CE0171
:1005C000DF91CF911F91FF90EF90DF90CF90BF9080
:1005D000AF909F908F907F906F905F904F903F90E3
:1005E0002F900C943F022FEF3FEF4FE75FECC701D6
:1005F000B6010E94D20787FDE0CF20E030E0A901DC
:10060000C701B6010E94D207312C212C87FF0DC0F3
:10061000E881F9810190F081E02D6DE2CE0109952C
:100620001C01F7FAF094F7F8F09410E060E070E045
:1006300080E09FE3711641F020E030E040E251E4B9
:100640000E94D7071F5FF6CFA70196010E94660799
:100650002B013C010E9449084B015C012AE0BC01CE
:10066000A401CE010E944E027C01E20CF31C112376
:10067000E1F1C501B4010E9478089B01AC01C301FE
:10068000B2010E9465074B015C01E881F98101908C
:10069000F081E02D6EE2CE010995E80EF91E1150B1
:1006A00020F120E030E040E251E4C501B4010E94B5
:1006B0002F092B013C010E9449084B01B12CA12CB0
:1006C0002AE0B501A401CE010E944E02E80EF91EF7
:1006D000C501B4010E9478089B01AC01C301B201BD
:1006E0000E9465074B015C01DACFC701DF91CF9112
:1006F0001F91FF90EF90DF90CF90BF90AF909F90B1
:100700008F907F906F905F904F903F902F900895C3
:10071000CF93DF93EC0160E08E810E94990161E04C
:100720008E810E94990160E08E810E9499018BE880
:1007300091E00197F1F7DF91CF910895CF92DF9289
:10074000EF92FF920F931F93CF93DF936C017C0185
:1007500087E0E80EF11CD0E0C0E0062F10E0B80101
:100760000C2E02C0759567950A94E2F76170F70147
:1007700081917F010E9499012196C430D10579F7BA
:10078000C601DF91CF911F910F91FF90EF90DF9005
:10079000CF900C948803CF92DF92EF92FF920F9349
:1007A0001F93CF93DF93EC01F62E642F8C810E9470
:1007B00099018D818F3F19F060E00E9499010F2D02
:1007C00010E08F8584FF25C06E0187E0C80ED11C24
:1007D000F12CE12CB8010E2C02C0759567950A9496
:1007E000E2F76170F60181916F010E949901FFEFBC
:1007F000EF1AFF0A88E0E816F10461F7CE01DF91F5
:10080000CF911F910F91FF90EF90DF90CF900C94BC
:100810008803B80184E0759567958A95E1F7CE0164
:100820000E949E036F2DCE01DF91CF911F910F91FA
:10083000FF90EF90DF90CF900C949E0340E0682FE4
:1008400088EE91E00C94CB03CF93DF93823029F4B0
:100850009091F70198609093F7018093FB011092BB
:10086000FC0180E48093FD0180E18093FE0180E53E
:100870008093FF0161E08091EC010E94E50180918D
:10088000ED018F3F19F061E00E94E50161E0809188
:10089000EE010E94E501C8EED1E09E01285E3140E4
:1008A0008091F70184FD0BC084E090E02196281729
:1008B000390744F461E08E810E94E501EECF88E0C3
:1008C00090E0F4CF8BE39DE00197F1F760E0809139
:1008D000EC010E94990160E08091EE010E94990173
:1008E0008091ED018F3F19F060E00E9499018091A5
:1008F000F70184FD39C063E088EE91E00E949E0319
:10090000CBE4D6E4CE010197F1F763E088EE91E005
:100910000E949E032197F1F763E088EE91E00E9428
:100920009E0383E592E00197F1F762E088EE91E0A3
:100930000E949E038091F70180620E941E0484E061
:100940008093F8018CE00E941E0481E00E941E0446
:100950008BE39FE10197F1F782E08093F90186E054
:10096000DF91CF910C941E0480620E941E048BE4E0
:1009700096E40197F1F78091F70180620E941E04CE
:1009800083E592E00197F1F78091F70180620E9480
:100990001E04D0CF41E00E94CB0381E090E0089597
:1009A0001F920F920FB60F9211242F933F934F93E4
:1009B0005F936F937F938F939F93AF93BF93EF93C7
:1009C000FF938BE491E00E940A01FF91EF91BF91A8
:1009D000AF919F918F917F916F915F914F913F91D7
:1009E0002F910F900FBE0F901F9018951F920F928E
:1009F0000FB60F9211242F938F939F93EF93FF9332
:100A0000E0915B01F0915C018081E0916101F091E6
:100A1000620182FD1BC09081809164018F5F8F73A2
:100A200020916501821741F0E0916401F0E0E55BFF
:100A3000FE4F958F80936401FF91EF919F918F916D
:100A40002F910F900FBE0F901F9018958081F4CFBB
:100A50001F920F920FB60F9211242F933F938F93F3
:100A60009F93AF93BF9380913F0190914001A091DC
:100A70004101B091420130913E0123E0230F2D3717
:100A800058F50196A11DB11D20933E0180933F01B1
:100A900090934001A0934101B093420180914301A2
:100AA00090914401A0914501B09146010196A11D8C
:100AB000B11D8093430190934401A0934501B093ED
:100AC0004601BF91AF919F918F913F912F910F90D0
:100AD0000FBE0F901F90189526E8230F0296A11DB8
:100AE000B11DD2CFCF92DF92EF92FF920F931F935F
:100AF000E82FF92F05C0015011092109310961F1D1
:100B0000908196239417B9F305C00150110921096A
:100B1000310911F1908196239413F7CFC12CD12C78
:100B2000E12CF12C0AC08FEFC81AD80AE80AF80A9B
:100B30000C151D052E053F0579F08081862384174D
:100B400091F36C2D7D2D8E2D9F2D1F910F91FF9078
:100B5000EF90DF90CF90089560E070E080E090E04B
:100B60001F910F91FF90EF90DF90CF900895EBE4ED
:100B7000F1E01382128288EE93E0A0E0B0E084837B
:100B80009583A683B78384E091E09183808385EC8D
:100B900090E09587848784EC90E09787868780EC47
:100BA00090E0918B808B81EC90E0938B828B82EC38
:100BB00090E0958B848B86EC90E0978B868B118EE2
:100BC000128E138E148EE8EEF1E01382128286E10B
:100BD00091E09183808381E084838FEF858382E03D
:100BE000868384E0878385E0808786E0818787E04D
:100BF00082871386148615861686178681E00C94E4
:100C00002404789484B5826084BD84B5816084BDF9
:100C100085B5826085BD85B5816085BD80916E009A
:100C2000816080936E0010928100809181008260CB
:100C30008093810080918100816080938100809108
:100C400080008160809380008091B10084608093F7
:100C5000B1008091B00081608093B00080917A00F3
:100C6000846080937A0080917A00826080937A0019
:100C700080917A00816080937A0080917A00806808
:100C800080937A001092C10061E089E00E94E50142
:100C900060E08AE00E94E501E0915B01F0915C0177
:100CA00082E08083E0915701F09158011082E09139
:100CB0005901F0915A018FEC808310926301E09109
:100CC0005F01F091600186E08083E0915D01F09129
:100CD0005E01808180618083E0915D01F0915E0121
:100CE000808188608083E0915D01F0915E01808168
:100CF00080688083E0915D01F0915E0180818F7D4D
:100D0000808382E00E94240423E0222E312CC3E25F
:100D1000D0E03BE3A32E3FE1B32E40E0842E40E041
:100D2000942E60E089E00E949901C1010197F1F7DA
:100D300061E089E00E949901CE010197F1F760E03E
:100D400089E00E949901E8EBF0E06491E4EAF0E0C8
:100D50008491E82FF0E0EE0FFF1FE057FF4F8591E1
:100D6000949100E412E42FE030E0462F0E947205D7
:100D7000611571058105910529F06F5F7F4F8F4FD8
:100D80009F4F9F700E94780826E933E44BE05DE3B3
:100D90000E942F0920E030E040E05FE30E942F092D
:100DA000AB01BC0140934701509348016093490156
:100DB00070934A0122E08BE491E00E949A026AE279
:100DC00071E08BE491E00E943F0281E00E941E04EA
:100DD000C5010197F1F7E1E08091FB018111E0E0AD
:100DE000E195F0E0E851FE4F848980680E941E047E
:100DF0006DE271E08BE491E00E943F024091470177
:100E0000509148016091490170914A0122E08BE4C0
:100E100091E00E949A026AE271E08BE491E00E9404
:100E20003F026DE271E088EE91E00E943F02E091A6
:100E3000FB01E23008F047C0E150F0E0E851FE4F1E
:100E400084898B5F80680E941E0440914701509105
:100E500048016091490170914A0122E088EE91E0D9
:100E60000E949A020E9416022B013C0188EEC82EB5
:100E700083E0D82EE12CF12C0E941602641975092A
:100E800086099709683E734081059105A8F3F1E052
:100E9000CF1AD108E108F10828EE420E23E0521ED5
:100EA000611C711CC114D104E104F10429F78114FF
:100EB000910409F436CF0E94F600882309F431CF5B
:100EC0000E9400002ECFE1E0B8CF5058BB27AA27E0
:100ED0000E947D070C94F0080E94E20838F00E94FE
:100EE000E90820F039F49F3F19F426F40C94DF0848
:100EF0000EF4E095E7FB0C94D908E92F0E94010954
:100F000058F3BA17620773078407950720F079F43E
:100F1000A6F50C9423090EF4E0950B2EBA2FA02D04
:100F20000B01B90190010C01CA01A0011124FF2796
:100F3000591B99F0593F50F4503E68F11A16F04091
:100F4000A22F232F342F4427585FF3CF4695379590
:100F50002795A795F0405395C9F77EF41F16BA0B55
:100F6000620B730B840BBAF09150A1F0FF0FBB1F03
:100F7000661F771F881FC2F70EC0BA0F621F731F4C
:100F8000841F48F4879577956795B795F7959E3FA9
:100F900008F0B0CF9395880F08F09927EE0F97953A
:100FA000879508950E94B50808F481E008950E948D
:100FB000EB070C94F0080E94E90858F00E94E20840
:100FC00040F029F45F3F29F00C94D90851110C949A
:100FD00024090C94DF080E94010968F39923B1F3F6
:100FE000552391F3951B550BBB27AA27621773074F
:100FF000840738F09F5F5F4F220F331F441FAA1FE3
:10100000A9F335D00E2E3AF0E0E832D0915050409E
:10101000E695001CCAF72BD0FE2F29D0660F771F4C
:10102000881FBB1F261737074807AB07B0E809F032
:10103000BB0B802DBF01FF2793585F4F3AF09E3FB7
:10104000510578F00C94D9080C9424095F3FE4F31F
:10105000983ED4F3869577956795B795F7959F5FFA
:10106000C9F7880F911D9695879597F90895E1E046
:10107000660F771F881FBB1F621773078407BA07A5
:1010800020F0621B730B840BBA0BEE1F88F7E09500
:1010900008950E94090988F09F5798F0B92F992761
:1010A000B751B0F0E1F0660F771F881F991F1AF053
:1010B000BA95C9F714C0B13091F00E942309B1E08C
:1010C00008950C942309672F782F8827B85F39F08B
:1010D000B93FCCF3869577956795B395D9F73EF4EC
:1010E00090958095709561957F4F8F4F9F4F089594
:1010F000E89409C097FB3EF49095809570956195B2
:101100007F4F8F4F9F4F9923A9F0F92F96E9BB2767
:101110009395F695879577956795B795F111F8CFE3
:10112000FAF4BB0F11F460FF1BC06F5F7F4F8F4F4E
:101130009F4F16C0882311F096E911C0772321F044
:101140009EE8872F762F05C0662371F096E8862FDC
:1011500070E060E02AF09A95660F771F881FDAF733
:10116000880F9695879597F90895990F0008550F60
:10117000AA0BE0E8FEEF16161706E807F907C0F01D
:1011800012161306E407F50798F0621B730B840B25
:10119000950B39F40A2661F0232B242B252B21F4FF
:1011A00008950A2609F4A140A6958FEF811D811D9F
:1011B000089597F99F6780E870E060E008959FEFD9
:1011C00080EC089500240A941616170618060906DE
:1011D000089500240A9412161306140605060895AD
:1011E000092E0394000C11F4882352F0BB0F40F435
:1011F000BF2B11F460FF04C06F5F7F4F8F4F9F4F75
:10120000089557FD9058440F551F59F05F3F71F0F6
:101210004795880F97FB991F61F09F3F79F087955D
:101220000895121613061406551FF2CF4695F1DFE6
:1012300008C0161617061806991FF1CF8695710576
:10124000610508940895E894BB2766277727CB01AA
:1012500097F908950E94B50808F48FEF08950E9449
:1012600042090C94F0080E94E20838F00E94E90854
:1012700020F0952311F00C94D9080C94DF08112468
:101280000C9424090E94010970F3959FC1F3950FF6
:1012900050E0551F629FF001729FBB27F00DB11DFA
:1012A000639FAA27F00DB11DAA1F649F6627B00D8A
:1012B000A11D661F829F2227B00DA11D621F739F73
:1012C000B00DA11D621F839FA00D611D221F749F81
:1012D0003327A00D611D231F849F600D211D822FC8
:1012E000762F6A2F11249F5750409AF0F1F08823EF
:1012F0004AF0EE0FFF1FBB1F661F771F881F91501C
:101300005040A9F79E3F510580F00C94D9080C94E9
:1013100024095F3FE4F3983ED4F38695779567956B
:10132000B795F795E7959F5FC1F7FE2B880F911D45
:101330009695879597F908950E94B508880B990BA3
:101340000895A1E21A2EAA1BBB1BFD010DC0AA1F06
:10135000BB1FEE1FFF1FA217B307E407F50720F01E
:10136000A21BB30BE40BF50B661F771F881F991F99
:101370001A9469F760957095809590959B01AC01E2
:10138000BD01CF010895EE0FFF1F0590F491E02DF0
:061390000994F894FFCF60
:10139600000000002C018C00B9007901EA00C800A9
:1013A600DC0000000000CA048C003C023B026E61B7
:1013B6006E00696E66006F7666000D0A00446973FA
:0E13C60074616E636520696E20436D3A2000ED
:00000001FF
